{
  "_format": "hh-sol-artifact-1",
  "contractName": "Staking",
  "sourceName": "contracts/Staking.sol",
  "abi": [
    {
      "inputs": [
        {
          "internalType": "address",
          "name": "_tokenAddress",
          "type": "address"
        },
        {
          "internalType": "address",
          "name": "_rewardTokenAddress",
          "type": "address"
        }
      ],
      "stateMutability": "nonpayable",
      "type": "constructor"
    },
    {
      "anonymous": false,
      "inputs": [
        {
          "indexed": true,
          "internalType": "address",
          "name": "user",
          "type": "address"
        },
        {
          "indexed": true,
          "internalType": "uint256",
          "name": "pid",
          "type": "uint256"
        },
        {
          "indexed": false,
          "internalType": "uint256",
          "name": "amount",
          "type": "uint256"
        }
      ],
      "name": "Deposit",
      "type": "event"
    },
    {
      "anonymous": false,
      "inputs": [
        {
          "indexed": true,
          "internalType": "address",
          "name": "user",
          "type": "address"
        },
        {
          "indexed": true,
          "internalType": "uint256",
          "name": "pid",
          "type": "uint256"
        },
        {
          "indexed": false,
          "internalType": "uint256",
          "name": "amount",
          "type": "uint256"
        }
      ],
      "name": "EmergencyWithdraw",
      "type": "event"
    },
    {
      "anonymous": false,
      "inputs": [
        {
          "indexed": true,
          "internalType": "address",
          "name": "previousOwner",
          "type": "address"
        }
      ],
      "name": "OwnershipRenounced",
      "type": "event"
    },
    {
      "anonymous": false,
      "inputs": [
        {
          "indexed": true,
          "internalType": "address",
          "name": "previousOwner",
          "type": "address"
        },
        {
          "indexed": true,
          "internalType": "address",
          "name": "newOwner",
          "type": "address"
        }
      ],
      "name": "OwnershipTransferred",
      "type": "event"
    },
    {
      "anonymous": false,
      "inputs": [
        {
          "indexed": true,
          "internalType": "address",
          "name": "previousOwner",
          "type": "address"
        }
      ],
      "name": "TransferOwnerShip",
      "type": "event"
    },
    {
      "anonymous": false,
      "inputs": [
        {
          "indexed": true,
          "internalType": "address",
          "name": "user",
          "type": "address"
        },
        {
          "indexed": true,
          "internalType": "uint256",
          "name": "pid",
          "type": "uint256"
        },
        {
          "indexed": false,
          "internalType": "uint256",
          "name": "amount",
          "type": "uint256"
        }
      ],
      "name": "Withdraw",
      "type": "event"
    },
    {
      "inputs": [],
      "name": "addETHReward",
      "outputs": [],
      "stateMutability": "payable",
      "type": "function"
    },
    {
      "inputs": [
        {
          "internalType": "uint256",
          "name": "_maxPoolSize",
          "type": "uint256"
        },
        {
          "internalType": "uint256",
          "name": "_maxContribution",
          "type": "uint256"
        },
        {
          "internalType": "uint256",
          "name": "_emergencyFee",
          "type": "uint256"
        },
        {
          "internalType": "uint256",
          "name": "_minContribution",
          "type": "uint256"
        },
        {
          "internalType": "uint256",
          "name": "_apy",
          "type": "uint256"
        },
        {
          "internalType": "uint256",
          "name": "_minLockDays",
          "type": "uint256"
        },
        {
          "internalType": "bool",
          "name": "_poolType",
          "type": "bool"
        },
        {
          "internalType": "bool",
          "name": "_poolActive",
          "type": "bool"
        }
      ],
      "name": "addPool",
      "outputs": [],
      "stateMutability": "nonpayable",
      "type": "function"
    },
    {
      "inputs": [
        {
          "internalType": "uint256",
          "name": "_amount",
          "type": "uint256"
        }
      ],
      "name": "addReward",
      "outputs": [],
      "stateMutability": "nonpayable",
      "type": "function"
    },
    {
      "inputs": [
        {
          "internalType": "address[]",
          "name": "_whitelistAddresses",
          "type": "address[]"
        }
      ],
      "name": "addWhitelist",
      "outputs": [],
      "stateMutability": "nonpayable",
      "type": "function"
    },
    {
      "inputs": [],
      "name": "claimETHReward",
      "outputs": [],
      "stateMutability": "nonpayable",
      "type": "function"
    },
    {
      "inputs": [],
      "name": "claimRewards",
      "outputs": [],
      "stateMutability": "nonpayable",
      "type": "function"
    },
    {
      "inputs": [
        {
          "internalType": "address",
          "name": "_user",
          "type": "address"
        }
      ],
      "name": "claimableETHReward",
      "outputs": [
        {
          "internalType": "uint256",
          "name": "",
          "type": "uint256"
        }
      ],
      "stateMutability": "view",
      "type": "function"
    },
    {
      "inputs": [
        {
          "internalType": "address",
          "name": "_user",
          "type": "address"
        }
      ],
      "name": "claimableNativeRewards",
      "outputs": [
        {
          "internalType": "uint256",
          "name": "",
          "type": "uint256"
        }
      ],
      "stateMutability": "view",
      "type": "function"
    },
    {
      "inputs": [
        {
          "internalType": "address",
          "name": "_user",
          "type": "address"
        }
      ],
      "name": "claimableRewards",
      "outputs": [
        {
          "internalType": "uint256",
          "name": "",
          "type": "uint256"
        }
      ],
      "stateMutability": "view",
      "type": "function"
    },
    {
      "inputs": [
        {
          "internalType": "bool",
          "name": "_lock",
          "type": "bool"
        }
      ],
      "name": "emergencyLock",
      "outputs": [],
      "stateMutability": "nonpayable",
      "type": "function"
    },
    {
      "inputs": [],
      "name": "emergencyWithdraw",
      "outputs": [],
      "stateMutability": "nonpayable",
      "type": "function"
    },
    {
      "inputs": [],
      "name": "owner",
      "outputs": [
        {
          "internalType": "address",
          "name": "",
          "type": "address"
        }
      ],
      "stateMutability": "view",
      "type": "function"
    },
    {
      "inputs": [],
      "name": "pool",
      "outputs": [
        {
          "internalType": "uint256",
          "name": "maxPoolSize",
          "type": "uint256"
        },
        {
          "internalType": "uint256",
          "name": "currentPoolSize",
          "type": "uint256"
        },
        {
          "internalType": "uint256",
          "name": "maxContribution",
          "type": "uint256"
        },
        {
          "internalType": "uint256",
          "name": "minContribution",
          "type": "uint256"
        },
        {
          "internalType": "uint256",
          "name": "apy",
          "type": "uint256"
        },
        {
          "internalType": "uint256",
          "name": "emergencyFees",
          "type": "uint256"
        },
        {
          "internalType": "uint256",
          "name": "minLockDays",
          "type": "uint256"
        },
        {
          "internalType": "uint256",
          "name": "totalTokenRewards",
          "type": "uint256"
        },
        {
          "internalType": "uint256",
          "name": "totalETHRewards",
          "type": "uint256"
        },
        {
          "internalType": "uint256",
          "name": "totalRewardsClaimed",
          "type": "uint256"
        },
        {
          "internalType": "uint256",
          "name": "totalETHRewardsClaimed",
          "type": "uint256"
        },
        {
          "internalType": "bool",
          "name": "poolType",
          "type": "bool"
        },
        {
          "internalType": "bool",
          "name": "poolActive",
          "type": "bool"
        }
      ],
      "stateMutability": "view",
      "type": "function"
    },
    {
      "inputs": [],
      "name": "renounceOwnership",
      "outputs": [],
      "stateMutability": "nonpayable",
      "type": "function"
    },
    {
      "inputs": [
        {
          "internalType": "uint256",
          "name": "",
          "type": "uint256"
        }
      ],
      "name": "rewardAmount",
      "outputs": [
        {
          "internalType": "uint256",
          "name": "",
          "type": "uint256"
        }
      ],
      "stateMutability": "view",
      "type": "function"
    },
    {
      "inputs": [
        {
          "internalType": "uint256",
          "name": "",
          "type": "uint256"
        }
      ],
      "name": "rewardCurrentPoolSize",
      "outputs": [
        {
          "internalType": "uint256",
          "name": "",
          "type": "uint256"
        }
      ],
      "stateMutability": "view",
      "type": "function"
    },
    {
      "inputs": [
        {
          "internalType": "uint256",
          "name": "",
          "type": "uint256"
        }
      ],
      "name": "rewardETHAmount",
      "outputs": [
        {
          "internalType": "uint256",
          "name": "",
          "type": "uint256"
        }
      ],
      "stateMutability": "view",
      "type": "function"
    },
    {
      "inputs": [
        {
          "internalType": "uint256",
          "name": "",
          "type": "uint256"
        }
      ],
      "name": "rewardETHCurrentPoolSize",
      "outputs": [
        {
          "internalType": "uint256",
          "name": "",
          "type": "uint256"
        }
      ],
      "stateMutability": "view",
      "type": "function"
    },
    {
      "inputs": [
        {
          "internalType": "uint256",
          "name": "",
          "type": "uint256"
        }
      ],
      "name": "rewardETHTimes",
      "outputs": [
        {
          "internalType": "uint256",
          "name": "",
          "type": "uint256"
        }
      ],
      "stateMutability": "view",
      "type": "function"
    },
    {
      "inputs": [
        {
          "internalType": "uint256",
          "name": "",
          "type": "uint256"
        }
      ],
      "name": "rewardTimes",
      "outputs": [
        {
          "internalType": "uint256",
          "name": "",
          "type": "uint256"
        }
      ],
      "stateMutability": "view",
      "type": "function"
    },
    {
      "inputs": [],
      "name": "rewardToken",
      "outputs": [
        {
          "internalType": "contract IBEP20",
          "name": "",
          "type": "address"
        }
      ],
      "stateMutability": "view",
      "type": "function"
    },
    {
      "inputs": [
        {
          "internalType": "uint256",
          "name": "_amount",
          "type": "uint256"
        }
      ],
      "name": "stakeTokens",
      "outputs": [],
      "stateMutability": "nonpayable",
      "type": "function"
    },
    {
      "inputs": [],
      "name": "stakingToken",
      "outputs": [
        {
          "internalType": "contract IBEP20",
          "name": "",
          "type": "address"
        }
      ],
      "stateMutability": "view",
      "type": "function"
    },
    {
      "inputs": [],
      "name": "totalRewardsClaimed",
      "outputs": [
        {
          "internalType": "uint256",
          "name": "",
          "type": "uint256"
        }
      ],
      "stateMutability": "view",
      "type": "function"
    },
    {
      "inputs": [
        {
          "internalType": "address",
          "name": "newOwner",
          "type": "address"
        }
      ],
      "name": "transferOwnership",
      "outputs": [],
      "stateMutability": "nonpayable",
      "type": "function"
    },
    {
      "inputs": [],
      "name": "unstakeTokens",
      "outputs": [],
      "stateMutability": "nonpayable",
      "type": "function"
    },
    {
      "inputs": [
        {
          "internalType": "uint256",
          "name": "_apy",
          "type": "uint256"
        }
      ],
      "name": "updateApy",
      "outputs": [],
      "stateMutability": "nonpayable",
      "type": "function"
    },
    {
      "inputs": [
        {
          "internalType": "uint256",
          "name": "_emergencyFees",
          "type": "uint256"
        }
      ],
      "name": "updateEmergencyFees",
      "outputs": [],
      "stateMutability": "nonpayable",
      "type": "function"
    },
    {
      "inputs": [
        {
          "internalType": "uint256",
          "name": "_maxContribution",
          "type": "uint256"
        }
      ],
      "name": "updateMaxContribution",
      "outputs": [],
      "stateMutability": "nonpayable",
      "type": "function"
    },
    {
      "inputs": [
        {
          "internalType": "uint256",
          "name": "_maxPoolSize",
          "type": "uint256"
        }
      ],
      "name": "updateMaxPoolSize",
      "outputs": [],
      "stateMutability": "nonpayable",
      "type": "function"
    },
    {
      "inputs": [
        {
          "internalType": "uint256",
          "name": "_minContribution",
          "type": "uint256"
        }
      ],
      "name": "updateMinContribution",
      "outputs": [],
      "stateMutability": "nonpayable",
      "type": "function"
    },
    {
      "inputs": [
        {
          "internalType": "uint256",
          "name": "_lockDays",
          "type": "uint256"
        }
      ],
      "name": "updateMinLockDays",
      "outputs": [],
      "stateMutability": "nonpayable",
      "type": "function"
    },
    {
      "inputs": [
        {
          "internalType": "bool",
          "name": "_poolActive",
          "type": "bool"
        }
      ],
      "name": "updatePoolActive",
      "outputs": [],
      "stateMutability": "nonpayable",
      "type": "function"
    },
    {
      "inputs": [
        {
          "internalType": "bool",
          "name": "_poolType",
          "type": "bool"
        }
      ],
      "name": "updatePoolType",
      "outputs": [],
      "stateMutability": "nonpayable",
      "type": "function"
    },
    {
      "inputs": [
        {
          "internalType": "address",
          "name": "",
          "type": "address"
        }
      ],
      "name": "userInfo",
      "outputs": [
        {
          "internalType": "uint256",
          "name": "amount",
          "type": "uint256"
        },
        {
          "internalType": "uint256",
          "name": "stakingTime",
          "type": "uint256"
        },
        {
          "internalType": "uint256",
          "name": "rewardClaimed",
          "type": "uint256"
        },
        {
          "internalType": "uint256",
          "name": "rewardETHClaimed",
          "type": "uint256"
        }
      ],
      "stateMutability": "view",
      "type": "function"
    },
    {
      "inputs": [
        {
          "internalType": "address",
          "name": "",
          "type": "address"
        }
      ],
      "name": "whitelistedAddress",
      "outputs": [
        {
          "internalType": "bool",
          "name": "",
          "type": "bool"
        }
      ],
      "stateMutability": "view",
      "type": "function"
    },
    {
      "inputs": [
        {
          "internalType": "address",
          "name": "_tokenAddress",
          "type": "address"
        }
      ],
      "name": "withdrawBEP20",
      "outputs": [
        {
          "internalType": "bool",
          "name": "",
          "type": "bool"
        }
      ],
      "stateMutability": "nonpayable",
      "type": "function"
    },
    {
      "inputs": [],
      "name": "withdrawEth",
      "outputs": [
        {
          "internalType": "bool",
          "name": "",
          "type": "bool"
        }
      ],
      "stateMutability": "nonpayable",
      "type": "function"
    },
    {
      "stateMutability": "payable",
      "type": "receive"
    }
  ],
  "bytecode": "0x60806040526011805460ff1916905560006012553480156200002057600080fd5b50604051620028583803806200285883398101604081905262000043916200009d565b600080546001600160a01b03199081163317909155600180546001600160a01b0394851690831617905560028054929093169116179055620000d5565b80516001600160a01b03811681146200009857600080fd5b919050565b60008060408385031215620000b157600080fd5b620000bc8362000080565b9150620000cc6020840162000080565b90509250929050565b61277380620000e56000396000f3fe6080604052600436106102295760003560e01c806394cab51911610123578063c30796ab116100ab578063f2fde38b1161006f578063f2fde38b14610747578063f451177614610767578063f7c618c114610787578063fb48ad01146107a7578063ff16ef39146107c757600080fd5b8063c30796ab146106a2578063db2e21bc146106d2578063dc01f60d146106e7578063e11ceff114610707578063edac985b1461072757600080fd5b8063a569e367116100f2578063a569e36714610600578063a5ce413b14610620578063a7a93ea914610635578063a9c76d7214610655578063c0d93ff81461068257600080fd5b806394cab5191461057b578063975927a3146105a8578063a0ef91df146105d5578063a34b0f76146105ea57600080fd5b80634efd9e2c116101b157806374de4ec41161017557806374de4ec4146104dd5780637547c7a3146104fd57806376fe246b1461051d57806386b6f4621461053d5780638da5cb5b1461055d57600080fd5b80634efd9e2c1461042e57806357fafbf21461044e578063715018a61461047b57806372f702f31461049057806373c95545146104c857600080fd5b80632d0d1334116101f85780632d0d1334146103a35780632e5d106f146103d1578063341d96b2146103f1578063372500ab1461041157806341f894ff1461042657600080fd5b8063047e40861461023557806316f0115b1461026a5780631959a0021461031f5780632b7f23421461038157600080fd5b3661023057005b600080fd5b34801561024157600080fd5b5061025561025036600461238f565b6107e7565b60405190151581526020015b60405180910390f35b34801561027657600080fd5b50600354600454600554600654600754600854600954600a54600b54600c54600d54600e546102b99b9a9998979695949392919060ff808216916101009004168d565b604080519d8e5260208e019c909c529a8c019990995260608b019790975260808a019590955260a089019390935260c088019190915260e0870152610100860152610120850152610140840152151561016083015215156101808201526101a001610261565b34801561032b57600080fd5b5061036161033a36600461238f565b60136020526000908152604090208054600182015460028301546003909301549192909184565b604080519485526020850193909352918301526060820152608001610261565b34801561038d57600080fd5b506103a161039c3660046123b8565b61090a565b005b3480156103af57600080fd5b506103c36103be36600461238f565b61094e565b604051908152602001610261565b3480156103dd57600080fd5b506103c36103ec3660046123d5565b6109d2565b3480156103fd57600080fd5b506103a161040c3660046123b8565b6109f3565b34801561041d57600080fd5b506103a1610a30565b6103a1610bcc565b34801561043a57600080fd5b506103a16104493660046123d5565b610c6c565b34801561045a57600080fd5b506103c36104693660046123d5565b60146020526000908152604090205481565b34801561048757600080fd5b506103a1610c9b565b34801561049c57600080fd5b506001546104b0906001600160a01b031681565b6040516001600160a01b039091168152602001610261565b3480156104d457600080fd5b506103a1610d0d565b3480156104e957600080fd5b506103a16104f83660046123d5565b610e1e565b34801561050957600080fd5b506103a16105183660046123d5565b610f55565b34801561052957600080fd5b506103a16105383660046123ee565b6112d1565b34801561054957600080fd5b506103a16105583660046123d5565b6113c7565b34801561056957600080fd5b506000546001600160a01b03166104b0565b34801561058757600080fd5b506103c36105963660046123d5565b60166020526000908152604090205481565b3480156105b457600080fd5b506103c36105c33660046123d5565b60186020526000908152604090205481565b3480156105e157600080fd5b506102556113f6565b3480156105f657600080fd5b506103c360125481565b34801561060c57600080fd5b506103a161061b3660046123b8565b611474565b34801561062c57600080fd5b506103a16114b1565b34801561064157600080fd5b506103c36106503660046123d5565b61184b565b34801561066157600080fd5b506103c36106703660046123d5565b60176020526000908152604090205481565b34801561068e57600080fd5b506103a161069d3660046123d5565b61185b565b3480156106ae57600080fd5b506102556106bd36600461238f565b60156020526000908152604090205460ff1681565b3480156106de57600080fd5b506103a1611914565b3480156106f357600080fd5b506103c361070236600461238f565b611a9e565b34801561071357600080fd5b506103a16107223660046123d5565b611bc8565b34801561073357600080fd5b506103a1610742366004612477565b611c68565b34801561075357600080fd5b506103a161076236600461238f565b611d4a565b34801561077357600080fd5b506103a16107823660046123d5565b611db1565b34801561079357600080fd5b506002546104b0906001600160a01b031681565b3480156107b357600080fd5b506103c36107c236600461238f565b611e4d565b3480156107d357600080fd5b506103a16107e23660046123d5565b611f77565b600080546001600160a01b0316331461081b5760405162461bcd60e51b81526004016108129061253c565b60405180910390fd5b6040516370a0823160e01b815230600482015282906000906001600160a01b038316906370a0823190602401602060405180830381865afa158015610864573d6000803e3d6000fd5b505050506040513d601f19601f82011682018060405250810190610888919061255f565b60405163a9059cbb60e01b8152336004820152602481018290529091506000906001600160a01b0384169063a9059cbb906044016020604051808303816000875af11580156108db573d6000803e3d6000fd5b505050506040513d601f19601f820116820180604052508101906108ff9190612578565b93505050505b919050565b6000546001600160a01b031633146109345760405162461bcd60e51b81526004016108129061253c565b600e80549115156101000261ff0019909216919091179055565b6001600160a01b0381166000908152601360205260408120600101548190620151809061097b90426125ab565b61098591906125be565b6007546001600160a01b03851660009081526013602052604081205492935091620591c89184916109b691906125e0565b6109c091906125e0565b6109ca91906125be565b949350505050565b600f81815481106109e257600080fd5b600091825260209091200154905081565b6000546001600160a01b03163314610a1d5760405162461bcd60e51b81526004016108129061253c565b600e805460ff1916911515919091179055565b60115460ff1615610a535760405162461bcd60e51b8152600401610812906125f7565b6011805460ff1916600117905533600090815260136020526040902054610a8c5760405162461bcd60e51b815260040161081290612622565b33600090815260136020526040902060010154610abb5760405162461bcd60e51b815260040161081290612622565b6000610ac633611a9e565b905060008111610ae85760405162461bcd60e51b815260040161081290612657565b3360009081526013602052604081206002018054839290610b0a908490612684565b9091555050600c8054829190600090610b24908490612684565b909155505060025460405163a9059cbb60e01b8152336004820152602481018390526000916001600160a01b03169063a9059cbb906044016020604051808303816000875af1158015610b7b573d6000803e3d6000fd5b505050506040513d601f19601f82011682018060405250810190610b9f9190612578565b905080610bbe5760405162461bcd60e51b815260040161081290612697565b50506011805460ff19169055565b6000546001600160a01b03163314610bf65760405162461bcd60e51b81526004016108129061253c565b600f805460018101909155427f8d1108e10bcb7c27dddfc02ed9d693a074039d026cf4ea4240b40f7d581ac80290910181905560009081526017602052604090203490819055600b54610c499082611fa6565b600b5560045442600090815260186020526040902055610c69308261200e565b50565b6000546001600160a01b03163314610c965760405162461bcd60e51b81526004016108129061253c565b600655565b6000546001600160a01b03163314610cc55760405162461bcd60e51b81526004016108129061253c565b600080546040516001600160a01b03909116917ff8df31144d9c2f0f6b59d69b8b98abd5459d07f2742c4df920b25aae33c6482091a2600080546001600160a01b0319169055565b60115460ff1615610d305760405162461bcd60e51b8152600401610812906125f7565b6011805460ff1916600117905533600090815260136020526040902054610d695760405162461bcd60e51b815260040161081290612622565b33600090815260136020526040902060010154610d985760405162461bcd60e51b815260040161081290612622565b6000610da333611e4d565b905060008111610dc55760405162461bcd60e51b815260040161081290612657565b806003600a016000828254610dda9190612684565b90915550503360009081526013602052604081206003018054839290610e01908490612684565b90915550610e119050338261200e565b506011805460ff19169055565b6000546001600160a01b03163314610e485760405162461bcd60e51b81526004016108129061253c565b6010805460018101909155427f1b6847dc741a1b0cd08d278845f9d819d87b734759afb55fe2de5cb82a9ae6729091018190556000908152601460205260409020819055600a54610e999082611fa6565b600a5560048054426000908152601660205260408082209290925560025491516323b872dd60e01b8152339381019390935230602484015260448301849052916001600160a01b03909116906323b872dd906064015b6020604051808303816000875af1158015610f0e573d6000803e3d6000fd5b505050506040513d601f19601f82011682018060405250810190610f329190612578565b905080610f515760405162461bcd60e51b815260040161081290612697565b5050565b600e54610100900460ff16610fa15760405162461bcd60e51b8152602060048201526012602482015271506f6f6c206973206e6f742061637469766560701b6044820152606401610812565b600654811015610fff5760405162461bcd60e51b8152602060048201526024808201527f416d6f756e74206973206c657373207468616e206d696e20636f6e74726962756044820152633a34b7b760e11b6064820152608401610812565b60035460045461100f9083611fa6565b111561105d5760405162461bcd60e51b815260206004820152601d60248201527f5374616b696e672065786365656473206d617820706f6f6c2073697a650000006044820152606401610812565b6005543360009081526013602052604090205461107a9083611fa6565b11156110c85760405162461bcd60e51b815260206004820152601860248201527f4d617820436f6e747269627574696f6e206578636565647300000000000000006044820152606401610812565b600e5460ff161515600003611144573360009081526015602052604090205460ff166111445760405162461bcd60e51b815260206004820152602560248201527f596f7520617265206e6f742077686974656c697374656420666f722074686973604482015264081c1bdbdb60da1b6064820152608401610812565b600061114f33611a9e565b111561115d5761115d612081565b600061116833611e4d565b111561117657611176612182565b6001546040516323b872dd60e01b8152336004820152306024820152604481018390526000916001600160a01b0316906323b872dd906064016020604051808303816000875af11580156111ce573d6000803e3d6000fd5b505050506040513d601f19601f820116820180604052508101906111f29190612578565b9050806112585760405162461bcd60e51b815260206004820152602e60248201527f5472616e736665722046726f6d206661696c65642e20506c656173652061707060448201526d3937bb32903a3432903a37b5b2b760911b6064820152608401610812565b6004546112659083611fa6565b600455336000908152601360205260409020544290611285908490611fa6565b6040805160808101825291825260208083019384526000838301818152606085018281523383526013909352929020925183559251600183015551600282015590516003909101555050565b6000546001600160a01b031633146112fb5760405162461bcd60e51b81526004016108129061253c565b604080516101a081018252898152600060208201819052918101899052606081018790526080810186905260a0810188905260c0810185905260e081018290526101008082018390526101208201839052610140820183905293151561016082018190529215156101809091018190526003999099556004819055600597909755600694909455600792909255600893909355600992909255600a839055600b839055600c839055600d92909255600e805461ffff191661ff0019909316929092179202919091179055565b6000546001600160a01b031633146113f15760405162461bcd60e51b81526004016108129061253c565b600555565b600080546001600160a01b031633146114215760405162461bcd60e51b81526004016108129061253c565b6040514790600090339083908381818185875af1925050503d8060008114611465576040519150601f19603f3d011682016040523d82523d6000602084013e61146a565b606091505b5090935050505090565b6000546001600160a01b0316331461149e5760405162461bcd60e51b81526004016108129061253c565b6011805460ff1916911515919091179055565b60115460ff16156114d45760405162461bcd60e51b8152600401610812906125f7565b6011805460ff191660011790553360009081526013602052604090205461150d5760405162461bcd60e51b815260040161081290612622565b3360009081526013602052604090206001015461153c5760405162461bcd60e51b815260040161081290612622565b33600090815260136020526040812060010154620151809061155e90426125ab565b61156891906125be565b6009549091508110156115cc5760405162461bcd60e51b815260206004820152602660248201527f596f752063616e277420756e7374616b65206265666f7265206d696e206c6f636044820152656b206461797360d01b6064820152608401610812565b33600081815260136020526040812054916115e690611e4d565b11156115f4576115f4612182565b60006115ff33611a9e565b9050600061160c3361094e565b33600090815260136020526040812060020180549293508492909190611633908490612684565b90915550503360009081526013602052604090205460045461165491612256565b600455600c805483919060009061166c908490612684565b909155505033600081815260136020526040808220828155600281018390556001808201849055600390910183905554905163a9059cbb60e01b815260048101939093526024830186905290916001600160a01b039091169063a9059cbb906044016020604051808303816000875af11580156116ed573d6000803e3d6000fd5b505050506040513d601f19601f820116820180604052508101906117119190612578565b60015460405163a9059cbb60e01b8152336004820152602481018590529192506000916001600160a01b039091169063a9059cbb906044016020604051808303816000875af1158015611768573d6000803e3d6000fd5b505050506040513d601f19601f8201168201806040525081019061178c9190612578565b60025460405163a9059cbb60e01b8152336004820152602481018790529192506000916001600160a01b039091169063a9059cbb906044016020604051808303816000875af11580156117e3573d6000803e3d6000fd5b505050506040513d601f19601f820116820180604052508101906118079190612578565b90508280156118135750815b801561181c5750805b6118385760405162461bcd60e51b815260040161081290612697565b50506011805460ff191690555050505050565b601081815481106109e257600080fd5b6000546001600160a01b031633146118855760405162461bcd60e51b81526004016108129061253c565b6004541561190f5760085481111561190f5760405162461bcd60e51b815260206004820152604160248201527f596f752063616e277420696e6372656173652074686520656d657267656e637960448201527f2066656573207768656e2070656f706c652073746172746564207374616b696e6064820152606760f81b608482015260a401610812565b600855565b60115460ff16156119375760405162461bcd60e51b8152600401610812906125f7565b6011805460ff19166001179055336000908152601360205260409020546119705760405162461bcd60e51b815260040161081290612622565b3360009081526013602052604090206001015461199f5760405162461bcd60e51b815260040161081290612622565b33600090815260136020526040812080548282556002909101919091556004546119c99082612256565b6004556008546000906119f5906103e8906119e490856125e0565b6119ee91906125be565b8390612256565b60015460405163a9059cbb60e01b8152336004820152602481018390529192506000916001600160a01b039091169063a9059cbb906044016020604051808303816000875af1158015611a4c573d6000803e3d6000fd5b505050506040513d601f19601f82011682018060405250810190611a709190612578565b905080611a8f5760405162461bcd60e51b815260040161081290612697565b50506011805460ff1916905550565b6001600160a01b0381166000908152601360205260408120600181015490548203611acc5750600092915050565b6000805b601054811015611b7557600060108281548110611aef57611aef6126c0565b6000918252602080832090910154808352601482526040808420546016909352909220549192509085831115611b5f576001600160a01b0388166000908152601360205260408120548290611b459085906125e0565b611b4f91906125be565b9050611b5b8682611fa6565b9550505b5050508080611b6d906126d6565b915050611ad0565b506001600160a01b0384166000908152601360205260409020600201548111611ba2575060009392505050565b6001600160a01b0384166000908152601360205260409020600201546109ca90826125ab565b6000546001600160a01b03163314611bf25760405162461bcd60e51b81526004016108129061253c565b600454811015611c635760405162461bcd60e51b815260206004820152603660248201527f43616e6e6f742072656475636520746865206d61782073697a652062656c6f77604482015275207468652063757272656e7420706f6f6c2073697a6560501b6064820152608401610812565b600355565b6000546001600160a01b03163314611c925760405162461bcd60e51b81526004016108129061253c565b805160c8811115611ce55760405162461bcd60e51b815260206004820152601d60248201527f43616e20616464206f6e6c792032303020776c20617420612074696d650000006044820152606401610812565b60005b81811015611d45576000838281518110611d0457611d046126c0565b6020908102919091018101516001600160a01b03166000908152601590915260409020805460ff191660011790555080611d3d816126d6565b915050611ce8565b505050565b6000546001600160a01b03163314611d745760405162461bcd60e51b81526004016108129061253c565b6040516001600160a01b038216907fb1eb34684306bcea7f9ed508931dc13b5993c8fdd00fe65c2e4680ae2610a70190600090a2610c6981612298565b6000546001600160a01b03163314611ddb5760405162461bcd60e51b81526004016108129061253c565b60045415611e485760405162461bcd60e51b815260206004820152603460248201527f43616e6e6f74206368616e6765206c6f636b2074696d652061667465722070656044820152736f706c652073746172746564207374616b696e6760601b6064820152608401610812565b600955565b6001600160a01b0381166000908152601360205260408120600181015490548203611e7b5750600092915050565b6000805b600f54811015611f24576000600f8281548110611e9e57611e9e6126c0565b6000918252602080832090910154808352601782526040808420546018909352909220549192509085831115611f0e576001600160a01b0388166000908152601360205260408120548290611ef49085906125e0565b611efe91906125be565b9050611f0a8682611fa6565b9550505b5050508080611f1c906126d6565b915050611e7f565b506001600160a01b0384166000908152601360205260409020600301548111611f51575060009392505050565b6001600160a01b0384166000908152601360205260409020600301546109ca90826125ab565b6000546001600160a01b03163314611fa15760405162461bcd60e51b81526004016108129061253c565b600755565b600080611fb38385612684565b9050838110156120055760405162461bcd60e51b815260206004820152601b60248201527f536166654d6174683a206164646974696f6e206f766572666c6f7700000000006044820152606401610812565b90505b92915050565b6000826001600160a01b03168260405160006040518083038185875af1925050503d806000811461205b576040519150601f19603f3d011682016040523d82523d6000602084013e612060565b606091505b5050905080611d455760405162461bcd60e51b815260040161081290612697565b336000908152601360205260409020546120ad5760405162461bcd60e51b815260040161081290612622565b336000908152601360205260409020600101546120dc5760405162461bcd60e51b815260040161081290612622565b60006120e733611a9e565b9050600081116121095760405162461bcd60e51b815260040161081290612657565b336000908152601360205260408120600201805483929061212b908490612684565b9091555050600c8054829190600090612145908490612684565b909155505060025460405163a9059cbb60e01b8152336004820152602481018390526000916001600160a01b03169063a9059cbb90604401610eef565b336000908152601360205260409020546121ae5760405162461bcd60e51b815260040161081290612622565b336000908152601360205260409020600101546121dd5760405162461bcd60e51b815260040161081290612622565b60006121e833611e4d565b90506000811161220a5760405162461bcd60e51b815260040161081290612657565b806003600a01600082825461221f9190612684565b90915550503360009081526013602052604081206003018054839290612246908490612684565b90915550610c699050338261200e565b600061200583836040518060400160405280601e81526020017f536166654d6174683a207375627472616374696f6e206f766572666c6f77000081525061233e565b6001600160a01b0381166122e35760405162461bcd60e51b815260206004820152601260248201527104f776e65722063616e206e6f7420626520360741b6044820152606401610812565b600080546040516001600160a01b03808516939216917f8be0079c531659141344cd1fd0a4f28419497f9722a3daafe3b4186f6b6457e091a3600080546001600160a01b0319166001600160a01b0392909216919091179055565b600081848411156123625760405162461bcd60e51b815260040161081291906126ef565b50600061236f84866125ab565b95945050505050565b80356001600160a01b038116811461090557600080fd5b6000602082840312156123a157600080fd5b61200582612378565b8015158114610c6957600080fd5b6000602082840312156123ca57600080fd5b8135612005816123aa565b6000602082840312156123e757600080fd5b5035919050565b600080600080600080600080610100898b03121561240b57600080fd5b883597506020890135965060408901359550606089013594506080890135935060a0890135925060c0890135612440816123aa565b915060e0890135612450816123aa565b809150509295985092959890939650565b634e487b7160e01b600052604160045260246000fd5b6000602080838503121561248a57600080fd5b823567ffffffffffffffff808211156124a257600080fd5b818501915085601f8301126124b657600080fd5b8135818111156124c8576124c8612461565b8060051b604051601f19603f830116810181811085821117156124ed576124ed612461565b60405291825284820192508381018501918883111561250b57600080fd5b938501935b828510156125305761252185612378565b84529385019392850192612510565b98975050505050505050565b6020808252600990820152682737ba1037bbb732b960b91b604082015260600190565b60006020828403121561257157600080fd5b5051919050565b60006020828403121561258a57600080fd5b8151612005816123aa565b634e487b7160e01b600052601160045260246000fd5b8181038181111561200857612008612595565b6000826125db57634e487b7160e01b600052601260045260246000fd5b500490565b808202811582820484141761200857612008612595565b602080825260119082015270141c9bd8d95cdcc81a5cc81b1bd8dad959607a1b604082015260600190565b6020808252818101527f596f7520646f6e2774206861766520616e79207374616b656420746f6b656e73604082015260600190565b6020808252601390820152724e6f207265776172647320746f20636c61696d60681b604082015260600190565b8082018082111561200857612008612595565b6020808252600f908201526e151c985b9cd9995c8819985a5b1959608a1b604082015260600190565b634e487b7160e01b600052603260045260246000fd5b6000600182016126e8576126e8612595565b5060010190565b600060208083528351808285015260005b8181101561271c57858101830151858201604001528201612700565b506000604082860101526040601f19601f830116850101925050509291505056fea26469706673582212203c8fa6066e9d0e3ca2b76c7f4e6358ce9231a17e328abd596ab9f300c37678b364736f6c63430008130033",
  "linkReferences": {},
  "deployedLinkReferences": {}
}